{
  "_format": "hh-sol-artifact-1",
  "contractName": "SecSafe",
  "sourceName": "contracts/SecSafe.sol",
  "abi": [
    {
      "anonymous": false,
      "inputs": [
        {
          "indexed": true,
          "internalType": "address",
          "name": "user",
          "type": "address"
        },
        {
          "indexed": false,
          "internalType": "string",
          "name": "siteName",
          "type": "string"
        }
      ],
      "name": "EntryAdded",
      "type": "event"
    },
    {
      "anonymous": false,
      "inputs": [
        {
          "indexed": true,
          "internalType": "address",
          "name": "user",
          "type": "address"
        },
        {
          "indexed": false,
          "internalType": "uint256",
          "name": "index",
          "type": "uint256"
        }
      ],
      "name": "EntryDeleted",
      "type": "event"
    },
    {
      "anonymous": false,
      "inputs": [
        {
          "indexed": true,
          "internalType": "address",
          "name": "user",
          "type": "address"
        },
        {
          "indexed": false,
          "internalType": "uint256",
          "name": "index",
          "type": "uint256"
        },
        {
          "indexed": false,
          "internalType": "string",
          "name": "siteName",
          "type": "string"
        }
      ],
      "name": "EntryUpdated",
      "type": "event"
    },
    {
      "inputs": [
        {
          "internalType": "string",
          "name": "siteName",
          "type": "string"
        },
        {
          "internalType": "string",
          "name": "encryptedUsername",
          "type": "string"
        },
        {
          "internalType": "string",
          "name": "encryptedPassword",
          "type": "string"
        }
      ],
      "name": "addEntry",
      "outputs": [],
      "stateMutability": "nonpayable",
      "type": "function"
    },
    {
      "inputs": [
        {
          "internalType": "uint256",
          "name": "index",
          "type": "uint256"
        }
      ],
      "name": "deleteEntry",
      "outputs": [],
      "stateMutability": "nonpayable",
      "type": "function"
    },
    {
      "inputs": [],
      "name": "getMyEntries",
      "outputs": [
        {
          "components": [
            {
              "internalType": "string",
              "name": "siteName",
              "type": "string"
            },
            {
              "internalType": "string",
              "name": "encryptedUsername",
              "type": "string"
            },
            {
              "internalType": "string",
              "name": "encryptedPassword",
              "type": "string"
            }
          ],
          "internalType": "struct SecSafe.VaultEntry[]",
          "name": "",
          "type": "tuple[]"
        }
      ],
      "stateMutability": "view",
      "type": "function"
    },
    {
      "inputs": [
        {
          "internalType": "uint256",
          "name": "index",
          "type": "uint256"
        },
        {
          "internalType": "string",
          "name": "siteName",
          "type": "string"
        },
        {
          "internalType": "string",
          "name": "encryptedUsername",
          "type": "string"
        },
        {
          "internalType": "string",
          "name": "encryptedPassword",
          "type": "string"
        }
      ],
      "name": "updateEntry",
      "outputs": [],
      "stateMutability": "nonpayable",
      "type": "function"
    }
  ],
  "bytecode": "0x608060405234801561001057600080fd5b50611211806100206000396000f3fe608060405234801561001057600080fd5b506004361061004c5760003560e01c806311f7516c1461005157806313191a6e1461006d578063af306d6f1461008b578063e7a9f27f146100a7575b600080fd5b61006b60048036038101906100669190610d0c565b6100c3565b005b61007561041a565b6040516100829190610f8a565b60405180910390f35b6100a560048036038101906100a09190610d35565b61066b565b005b6100c160048036038101906100bc9190610c68565b61080e565b005b6000803373ffffffffffffffffffffffffffffffffffffffff1673ffffffffffffffffffffffffffffffffffffffff168152602001908152602001600020805490508110610146576040517f08c379a000000000000000000000000000000000000000000000000000000000815260040161013d90610fd0565b60405180910390fd5b600060016000803373ffffffffffffffffffffffffffffffffffffffff1673ffffffffffffffffffffffffffffffffffffffff1681526020019081526020016000208054905061019691906110a3565b905080821461030b576000803373ffffffffffffffffffffffffffffffffffffffff1673ffffffffffffffffffffffffffffffffffffffff1681526020019081526020016000208181548110610215577f4e487b7100000000000000000000000000000000000000000000000000000000600052603260045260246000fd5b90600052602060002090600302016000803373ffffffffffffffffffffffffffffffffffffffff1673ffffffffffffffffffffffffffffffffffffffff1681526020019081526020016000208381548110610299577f4e487b7100000000000000000000000000000000000000000000000000000000600052603260045260246000fd5b906000526020600020906003020160008201816000019080546102bb90611123565b6102c6929190610a13565b5060018201816001019080546102db90611123565b6102e6929190610a13565b5060028201816002019080546102fb90611123565b610306929190610a13565b509050505b6000803373ffffffffffffffffffffffffffffffffffffffff1673ffffffffffffffffffffffffffffffffffffffff16815260200190815260200160002080548061037f577f4e487b7100000000000000000000000000000000000000000000000000000000600052603160045260246000fd5b6001900381819060005260206000209060030201600080820160006103a49190610aa0565b6001820160006103b49190610aa0565b6002820160006103c49190610aa0565b505090553373ffffffffffffffffffffffffffffffffffffffff167f863d345cb8a315b82cf25ba9b949c03407c0298f0b316ee400d4a2256a96a1948360405161040e9190610ff0565b60405180910390a25050565b60606000803373ffffffffffffffffffffffffffffffffffffffff1673ffffffffffffffffffffffffffffffffffffffff168152602001908152602001600020805480602002602001604051908101604052809291908181526020016000905b8282101561066257838290600052602060002090600302016040518060600160405290816000820180546104ad90611123565b80601f01602080910402602001604051908101604052809291908181526020018280546104d990611123565b80156105265780601f106104fb57610100808354040283529160200191610526565b820191906000526020600020905b81548152906001019060200180831161050957829003601f168201915b5050505050815260200160018201805461053f90611123565b80601f016020809104026020016040519081016040528092919081815260200182805461056b90611123565b80156105b85780601f1061058d576101008083540402835291602001916105b8565b820191906000526020600020905b81548152906001019060200180831161059b57829003601f168201915b505050505081526020016002820180546105d190611123565b80601f01602080910402602001604051908101604052809291908181526020018280546105fd90611123565b801561064a5780601f1061061f5761010080835404028352916020019161064a565b820191906000526020600020905b81548152906001019060200180831161062d57829003601f168201915b5050505050815250508152602001906001019061047a565b50505050905090565b6000803373ffffffffffffffffffffffffffffffffffffffff1673ffffffffffffffffffffffffffffffffffffffff1681526020019081526020016000208054905087106106ee576040517f08c379a00000000000000000000000000000000000000000000000000000000081526004016106e590610fd0565b60405180910390fd5b60008060003373ffffffffffffffffffffffffffffffffffffffff1673ffffffffffffffffffffffffffffffffffffffff1681526020019081526020016000208881548110610766577f4e487b7100000000000000000000000000000000000000000000000000000000600052603260045260246000fd5b906000526020600020906003020190508686826000019190610789929190610ae0565b50848482600101919061079d929190610ae0565b5082828260020191906107b1929190610ae0565b503373ffffffffffffffffffffffffffffffffffffffff167fdfa99eae1a1add2a59954690474150cfa71e645517efc388aafdaa0faa4c4f978989896040516107fc9392919061100b565b60405180910390a25050505050505050565b6000604051806060016040528088888080601f016020809104026020016040519081016040528093929190818152602001838380828437600081840152601f19601f82011690508083019250505050505050815260200186868080601f016020809104026020016040519081016040528093929190818152602001838380828437600081840152601f19601f82011690508083019250505050505050815260200184848080601f016020809104026020016040519081016040528093929190818152602001838380828437600081840152601f19601f8201169050808301925050505050505081525090506000803373ffffffffffffffffffffffffffffffffffffffff1673ffffffffffffffffffffffffffffffffffffffff168152602001908152602001600020819080600181540180825580915050600190039060005260206000209060030201600090919091909150600082015181600001908051906020019061097d929190610b66565b50602082015181600101908051906020019061099a929190610b66565b5060408201518160020190805190602001906109b7929190610b66565b5050503373ffffffffffffffffffffffffffffffffffffffff167fa39bf56b0e015deece3471e3a54cf84b07202031b637f5d7b644e3cd71b8171a8888604051610a02929190610fac565b60405180910390a250505050505050565b828054610a1f90611123565b90600052602060002090601f016020900481019282610a415760008555610a8f565b82601f10610a525780548555610a8f565b82800160010185558215610a8f57600052602060002091601f016020900482015b82811115610a8e578254825591600101919060010190610a73565b5b509050610a9c9190610bec565b5090565b508054610aac90611123565b6000825580601f10610abe5750610add565b601f016020900490600052602060002090810190610adc9190610bec565b5b50565b828054610aec90611123565b90600052602060002090601f016020900481019282610b0e5760008555610b55565b82601f10610b2757803560ff1916838001178555610b55565b82800160010185558215610b55579182015b82811115610b54578235825591602001919060010190610b39565b5b509050610b629190610bec565b5090565b828054610b7290611123565b90600052602060002090601f016020900481019282610b945760008555610bdb565b82601f10610bad57805160ff1916838001178555610bdb565b82800160010185558215610bdb579182015b82811115610bda578251825591602001919060010190610bbf565b5b509050610be89190610bec565b5090565b5b80821115610c05576000816000905550600101610bed565b5090565b60008083601f840112610c1b57600080fd5b8235905067ffffffffffffffff811115610c3457600080fd5b602083019150836001820283011115610c4c57600080fd5b9250929050565b600081359050610c62816111c4565b92915050565b60008060008060008060608789031215610c8157600080fd5b600087013567ffffffffffffffff811115610c9b57600080fd5b610ca789828a01610c09565b9650965050602087013567ffffffffffffffff811115610cc657600080fd5b610cd289828a01610c09565b9450945050604087013567ffffffffffffffff811115610cf157600080fd5b610cfd89828a01610c09565b92509250509295509295509295565b600060208284031215610d1e57600080fd5b6000610d2c84828501610c53565b91505092915050565b60008060008060008060006080888a031215610d5057600080fd5b6000610d5e8a828b01610c53565b975050602088013567ffffffffffffffff811115610d7b57600080fd5b610d878a828b01610c09565b9650965050604088013567ffffffffffffffff811115610da657600080fd5b610db28a828b01610c09565b9450945050606088013567ffffffffffffffff811115610dd157600080fd5b610ddd8a828b01610c09565b925092505092959891949750929550565b6000610dfa8383610f1d565b905092915050565b6000610e0d8261104d565b610e178185611070565b935083602082028501610e298561103d565b8060005b85811015610e655784840389528151610e468582610dee565b9450610e5183611063565b925060208a01995050600181019050610e2d565b50829750879550505050505092915050565b6000610e838385611092565b9350610e908385846110e1565b610e99836111b3565b840190509392505050565b6000610eaf82611058565b610eb98185611081565b9350610ec98185602086016110f0565b610ed2816111b3565b840191505092915050565b6000610eea600d83611092565b91507f496e76616c696420696e646578000000000000000000000000000000000000006000830152602082019050919050565b60006060830160008301518482036000860152610f3a8282610ea4565b91505060208301518482036020860152610f548282610ea4565b91505060408301518482036040860152610f6e8282610ea4565b9150508091505092915050565b610f84816110d7565b82525050565b60006020820190508181036000830152610fa48184610e02565b905092915050565b60006020820190508181036000830152610fc7818486610e77565b90509392505050565b60006020820190508181036000830152610fe981610edd565b9050919050565b60006020820190506110056000830184610f7b565b92915050565b60006040820190506110206000830186610f7b565b8181036020830152611033818486610e77565b9050949350505050565b6000819050602082019050919050565b600081519050919050565b600081519050919050565b6000602082019050919050565b600082825260208201905092915050565b600082825260208201905092915050565b600082825260208201905092915050565b60006110ae826110d7565b91506110b9836110d7565b9250828210156110cc576110cb611155565b5b828203905092915050565b6000819050919050565b82818337600083830152505050565b60005b8381101561110e5780820151818401526020810190506110f3565b8381111561111d576000848401525b50505050565b6000600282049050600182168061113b57607f821691505b6020821081141561114f5761114e611184565b5b50919050565b7f4e487b7100000000000000000000000000000000000000000000000000000000600052601160045260246000fd5b7f4e487b7100000000000000000000000000000000000000000000000000000000600052602260045260246000fd5b6000601f19601f8301169050919050565b6111cd816110d7565b81146111d857600080fd5b5056fea2646970667358221220a629a4eccd81e310984380a9c24b773e43be9c036355c133337f7175a7185c1464736f6c63430008000033",
  "linkReferences": {},
  "deployedLinkReferences": {}
}